{
  "_format": "hh-sol-artifact-1",
  "contractName": "TheMojis",
  "sourceName": "contracts/TheMojis.sol",
  "abi": [
    {
      "inputs": [
        {
          "internalType": "address",
          "name": "initialOwner",
          "type": "address"
        }
      ],
      "stateMutability": "nonpayable",
      "type": "constructor"
    },
    {
      "inputs": [
        {
          "internalType": "address",
          "name": "sender",
          "type": "address"
        },
        {
          "internalType": "uint256",
          "name": "tokenId",
          "type": "uint256"
        },
        {
          "internalType": "address",
          "name": "owner",
          "type": "address"
        }
      ],
      "name": "ERC721IncorrectOwner",
      "type": "error"
    },
    {
      "inputs": [
        {
          "internalType": "address",
          "name": "operator",
          "type": "address"
        },
        {
          "internalType": "uint256",
          "name": "tokenId",
          "type": "uint256"
        }
      ],
      "name": "ERC721InsufficientApproval",
      "type": "error"
    },
    {
      "inputs": [
        {
          "internalType": "address",
          "name": "approver",
          "type": "address"
        }
      ],
      "name": "ERC721InvalidApprover",
      "type": "error"
    },
    {
      "inputs": [
        {
          "internalType": "address",
          "name": "operator",
          "type": "address"
        }
      ],
      "name": "ERC721InvalidOperator",
      "type": "error"
    },
    {
      "inputs": [
        {
          "internalType": "address",
          "name": "owner",
          "type": "address"
        }
      ],
      "name": "ERC721InvalidOwner",
      "type": "error"
    },
    {
      "inputs": [
        {
          "internalType": "address",
          "name": "receiver",
          "type": "address"
        }
      ],
      "name": "ERC721InvalidReceiver",
      "type": "error"
    },
    {
      "inputs": [
        {
          "internalType": "address",
          "name": "sender",
          "type": "address"
        }
      ],
      "name": "ERC721InvalidSender",
      "type": "error"
    },
    {
      "inputs": [
        {
          "internalType": "uint256",
          "name": "tokenId",
          "type": "uint256"
        }
      ],
      "name": "ERC721NonexistentToken",
      "type": "error"
    },
    {
      "inputs": [
        {
          "internalType": "address",
          "name": "owner",
          "type": "address"
        }
      ],
      "name": "OwnableInvalidOwner",
      "type": "error"
    },
    {
      "inputs": [
        {
          "internalType": "address",
          "name": "account",
          "type": "address"
        }
      ],
      "name": "OwnableUnauthorizedAccount",
      "type": "error"
    },
    {
      "anonymous": false,
      "inputs": [
        {
          "indexed": true,
          "internalType": "address",
          "name": "owner",
          "type": "address"
        },
        {
          "indexed": true,
          "internalType": "address",
          "name": "approved",
          "type": "address"
        },
        {
          "indexed": true,
          "internalType": "uint256",
          "name": "tokenId",
          "type": "uint256"
        }
      ],
      "name": "Approval",
      "type": "event"
    },
    {
      "anonymous": false,
      "inputs": [
        {
          "indexed": true,
          "internalType": "address",
          "name": "owner",
          "type": "address"
        },
        {
          "indexed": true,
          "internalType": "address",
          "name": "operator",
          "type": "address"
        },
        {
          "indexed": false,
          "internalType": "bool",
          "name": "approved",
          "type": "bool"
        }
      ],
      "name": "ApprovalForAll",
      "type": "event"
    },
    {
      "anonymous": false,
      "inputs": [
        {
          "indexed": false,
          "internalType": "uint256",
          "name": "_fromTokenId",
          "type": "uint256"
        },
        {
          "indexed": false,
          "internalType": "uint256",
          "name": "_toTokenId",
          "type": "uint256"
        }
      ],
      "name": "BatchMetadataUpdate",
      "type": "event"
    },
    {
      "anonymous": false,
      "inputs": [
        {
          "indexed": false,
          "internalType": "uint256",
          "name": "_tokenId",
          "type": "uint256"
        }
      ],
      "name": "MetadataUpdate",
      "type": "event"
    },
    {
      "anonymous": false,
      "inputs": [
        {
          "indexed": true,
          "internalType": "address",
          "name": "previousOwner",
          "type": "address"
        },
        {
          "indexed": true,
          "internalType": "address",
          "name": "newOwner",
          "type": "address"
        }
      ],
      "name": "OwnershipTransferred",
      "type": "event"
    },
    {
      "anonymous": false,
      "inputs": [
        {
          "indexed": true,
          "internalType": "address",
          "name": "from",
          "type": "address"
        },
        {
          "indexed": true,
          "internalType": "address",
          "name": "to",
          "type": "address"
        },
        {
          "indexed": true,
          "internalType": "uint256",
          "name": "tokenId",
          "type": "uint256"
        }
      ],
      "name": "Transfer",
      "type": "event"
    },
    {
      "inputs": [
        {
          "internalType": "address",
          "name": "to",
          "type": "address"
        },
        {
          "internalType": "uint256",
          "name": "tokenId",
          "type": "uint256"
        }
      ],
      "name": "approve",
      "outputs": [],
      "stateMutability": "nonpayable",
      "type": "function"
    },
    {
      "inputs": [
        {
          "internalType": "address",
          "name": "owner",
          "type": "address"
        }
      ],
      "name": "balanceOf",
      "outputs": [
        {
          "internalType": "uint256",
          "name": "",
          "type": "uint256"
        }
      ],
      "stateMutability": "view",
      "type": "function"
    },
    {
      "inputs": [],
      "name": "baseTokenURI",
      "outputs": [
        {
          "internalType": "string",
          "name": "",
          "type": "string"
        }
      ],
      "stateMutability": "view",
      "type": "function"
    },
    {
      "inputs": [
        {
          "internalType": "uint256",
          "name": "tokenId",
          "type": "uint256"
        }
      ],
      "name": "burn",
      "outputs": [],
      "stateMutability": "nonpayable",
      "type": "function"
    },
    {
      "inputs": [
        {
          "internalType": "uint256",
          "name": "tokenId",
          "type": "uint256"
        }
      ],
      "name": "getApproved",
      "outputs": [
        {
          "internalType": "address",
          "name": "",
          "type": "address"
        }
      ],
      "stateMutability": "view",
      "type": "function"
    },
    {
      "inputs": [
        {
          "internalType": "address",
          "name": "owner",
          "type": "address"
        },
        {
          "internalType": "address",
          "name": "operator",
          "type": "address"
        }
      ],
      "name": "isApprovedForAll",
      "outputs": [
        {
          "internalType": "bool",
          "name": "",
          "type": "bool"
        }
      ],
      "stateMutability": "view",
      "type": "function"
    },
    {
      "inputs": [],
      "name": "maxMintPerAddress",
      "outputs": [
        {
          "internalType": "uint256",
          "name": "",
          "type": "uint256"
        }
      ],
      "stateMutability": "view",
      "type": "function"
    },
    {
      "inputs": [
        {
          "internalType": "address",
          "name": "_recipient",
          "type": "address"
        }
      ],
      "name": "mint",
      "outputs": [
        {
          "internalType": "uint256",
          "name": "",
          "type": "uint256"
        }
      ],
      "stateMutability": "payable",
      "type": "function"
    },
    {
      "inputs": [],
      "name": "mintPrice",
      "outputs": [
        {
          "internalType": "uint256",
          "name": "",
          "type": "uint256"
        }
      ],
      "stateMutability": "view",
      "type": "function"
    },
    {
      "inputs": [],
      "name": "name",
      "outputs": [
        {
          "internalType": "string",
          "name": "",
          "type": "string"
        }
      ],
      "stateMutability": "view",
      "type": "function"
    },
    {
      "inputs": [],
      "name": "owner",
      "outputs": [
        {
          "internalType": "address",
          "name": "",
          "type": "address"
        }
      ],
      "stateMutability": "view",
      "type": "function"
    },
    {
      "inputs": [
        {
          "internalType": "uint256",
          "name": "tokenId",
          "type": "uint256"
        }
      ],
      "name": "ownerOf",
      "outputs": [
        {
          "internalType": "address",
          "name": "",
          "type": "address"
        }
      ],
      "stateMutability": "view",
      "type": "function"
    },
    {
      "inputs": [],
      "name": "renounceOwnership",
      "outputs": [],
      "stateMutability": "nonpayable",
      "type": "function"
    },
    {
      "inputs": [
        {
          "internalType": "address",
          "name": "from",
          "type": "address"
        },
        {
          "internalType": "address",
          "name": "to",
          "type": "address"
        },
        {
          "internalType": "uint256",
          "name": "tokenId",
          "type": "uint256"
        }
      ],
      "name": "safeTransferFrom",
      "outputs": [],
      "stateMutability": "nonpayable",
      "type": "function"
    },
    {
      "inputs": [
        {
          "internalType": "address",
          "name": "from",
          "type": "address"
        },
        {
          "internalType": "address",
          "name": "to",
          "type": "address"
        },
        {
          "internalType": "uint256",
          "name": "tokenId",
          "type": "uint256"
        },
        {
          "internalType": "bytes",
          "name": "data",
          "type": "bytes"
        }
      ],
      "name": "safeTransferFrom",
      "outputs": [],
      "stateMutability": "nonpayable",
      "type": "function"
    },
    {
      "inputs": [
        {
          "internalType": "address",
          "name": "operator",
          "type": "address"
        },
        {
          "internalType": "bool",
          "name": "approved",
          "type": "bool"
        }
      ],
      "name": "setApprovalForAll",
      "outputs": [],
      "stateMutability": "nonpayable",
      "type": "function"
    },
    {
      "inputs": [],
      "name": "supply",
      "outputs": [
        {
          "internalType": "uint256",
          "name": "",
          "type": "uint256"
        }
      ],
      "stateMutability": "view",
      "type": "function"
    },
    {
      "inputs": [
        {
          "internalType": "bytes4",
          "name": "interfaceId",
          "type": "bytes4"
        }
      ],
      "name": "supportsInterface",
      "outputs": [
        {
          "internalType": "bool",
          "name": "",
          "type": "bool"
        }
      ],
      "stateMutability": "view",
      "type": "function"
    },
    {
      "inputs": [],
      "name": "symbol",
      "outputs": [
        {
          "internalType": "string",
          "name": "",
          "type": "string"
        }
      ],
      "stateMutability": "view",
      "type": "function"
    },
    {
      "inputs": [],
      "name": "tokenIds",
      "outputs": [
        {
          "internalType": "uint256",
          "name": "",
          "type": "uint256"
        }
      ],
      "stateMutability": "view",
      "type": "function"
    },
    {
      "inputs": [
        {
          "internalType": "uint256",
          "name": "tokenId",
          "type": "uint256"
        }
      ],
      "name": "tokenURI",
      "outputs": [
        {
          "internalType": "string",
          "name": "",
          "type": "string"
        }
      ],
      "stateMutability": "view",
      "type": "function"
    },
    {
      "inputs": [
        {
          "internalType": "address",
          "name": "from",
          "type": "address"
        },
        {
          "internalType": "address",
          "name": "to",
          "type": "address"
        },
        {
          "internalType": "uint256",
          "name": "tokenId",
          "type": "uint256"
        }
      ],
      "name": "transferFrom",
      "outputs": [],
      "stateMutability": "nonpayable",
      "type": "function"
    },
    {
      "inputs": [
        {
          "internalType": "address",
          "name": "newOwner",
          "type": "address"
        }
      ],
      "name": "transferOwnership",
      "outputs": [],
      "stateMutability": "nonpayable",
      "type": "function"
    },
    {
      "inputs": [
        {
          "internalType": "string",
          "name": "_baseTokenURI",
          "type": "string"
        }
      ],
      "name": "updateBaseTokenURI",
      "outputs": [
        {
          "internalType": "string",
          "name": "",
          "type": "string"
        }
      ],
      "stateMutability": "nonpayable",
      "type": "function"
    },
    {
      "inputs": [
        {
          "internalType": "uint256",
          "name": "_maxMintPerAddress",
          "type": "uint256"
        }
      ],
      "name": "updateMaxMintPerAddress",
      "outputs": [
        {
          "internalType": "uint256",
          "name": "",
          "type": "uint256"
        }
      ],
      "stateMutability": "nonpayable",
      "type": "function"
    },
    {
      "inputs": [
        {
          "internalType": "uint256",
          "name": "_price",
          "type": "uint256"
        }
      ],
      "name": "updateMintPrice",
      "outputs": [
        {
          "internalType": "uint256",
          "name": "",
          "type": "uint256"
        }
      ],
      "stateMutability": "nonpayable",
      "type": "function"
    },
    {
      "inputs": [
        {
          "internalType": "uint256",
          "name": "_supply",
          "type": "uint256"
        }
      ],
      "name": "updateSupply",
      "outputs": [
        {
          "internalType": "uint256",
          "name": "",
          "type": "uint256"
        }
      ],
      "stateMutability": "nonpayable",
      "type": "function"
    },
    {
      "inputs": [],
      "name": "withdraw",
      "outputs": [
        {
          "internalType": "bool",
          "name": "",
          "type": "bool"
        }
      ],
      "stateMutability": "payable",
      "type": "function"
    }
  ],
  "bytecode": "0x6000600855674563918244f400006009556110c3600a5560e0604052603660808181529062001f6760a039600b906200003990826200020a565b506005600c553480156200004c57600080fd5b5060405162001f9d38038062001f9d8339810160408190526200006f91620002d6565b8060405180604001604052806009815260200168546865204d6f6a697360b81b815250604051806040016040528060038152602001622a26a560e91b8152508160009081620000bf91906200020a565b506001620000ce82826200020a565b5050506001600160a01b0381166200010057604051631e4fbdf760e01b81526000600482015260240160405180910390fd5b6200010b8162000113565b505062000308565b600780546001600160a01b038381166001600160a01b0319831681179093556040519116919082907f8be0079c531659141344cd1fd0a4f28419497f9722a3daafe3b4186f6b6457e090600090a35050565b634e487b7160e01b600052604160045260246000fd5b600181811c908216806200019057607f821691505b602082108103620001b157634e487b7160e01b600052602260045260246000fd5b50919050565b601f8211156200020557600081815260208120601f850160051c81016020861015620001e05750805b601f850160051c820191505b818110156200020157828155600101620001ec565b5050505b505050565b81516001600160401b0381111562000226576200022662000165565b6200023e816200023784546200017b565b84620001b7565b602080601f8311600181146200027657600084156200025d5750858301515b600019600386901b1c1916600185901b17855562000201565b600085815260208120601f198616915b82811015620002a75788860151825594840194600190910190840162000286565b5085821015620002c65787850151600019600388901b60f8161c191681555b5050505050600190811b01905550565b600060208284031215620002e957600080fd5b81516001600160a01b03811681146200030157600080fd5b9392505050565b611c4f80620003186000396000f3fe6080604052600436106101b65760003560e01c80636a627842116100ec578063a22cb4651161008a578063d547cfb711610064578063d547cfb714610495578063e985e9c5146104aa578063f2fde38b146104f3578063f889f1fa1461051357600080fd5b8063a22cb46514610435578063b88d4fde14610455578063c87b56dd1461047557600080fd5b8063714cff56116100c6578063714cff56146103d7578063715018a6146103ed5780638da5cb5b1461040257806395d89b411461042057600080fd5b80636a627842146103845780636bd080491461039757806370a08231146103b757600080fd5b80633ccfd60b11610159578063572849c411610133578063572849c4146103185780636352211e1461032e578063655391c91461034e5780636817c76c1461036e57600080fd5b80633ccfd60b146102d057806342842e0e146102d857806342966c68146102f857600080fd5b806306fdde031161019557806306fdde0314610234578063081812fc14610256578063095ea7b31461028e57806323b872dd146102b057600080fd5b8062728e46146101bb57806301ffc9a7146101ee578063047fc9aa1461021e575b600080fd5b3480156101c757600080fd5b506101db6101d6366004611672565b610533565b6040519081526020015b60405180910390f35b3480156101fa57600080fd5b5061020e6102093660046116a1565b61054a565b60405190151581526020016101e5565b34801561022a57600080fd5b506101db600a5481565b34801561024057600080fd5b5061024961058e565b6040516101e59190611715565b34801561026257600080fd5b50610276610271366004611672565b610620565b6040516001600160a01b0390911681526020016101e5565b34801561029a57600080fd5b506102ae6102a936600461173f565b610649565b005b3480156102bc57600080fd5b506102ae6102cb366004611769565b610658565b61020e610701565b3480156102e457600080fd5b506102ae6102f3366004611769565b610821565b34801561030457600080fd5b506102ae610313366004611672565b610841565b34801561032457600080fd5b506101db600c5481565b34801561033a57600080fd5b50610276610349366004611672565b6108d3565b34801561035a57600080fd5b50610249610369366004611831565b6108de565b34801561037a57600080fd5b506101db60095481565b6101db61039236600461187a565b610987565b3480156103a357600080fd5b506101db6103b2366004611672565b610ab0565b3480156103c357600080fd5b506101db6103d236600461187a565b610b3a565b3480156103e357600080fd5b506101db60085481565b3480156103f957600080fd5b506102ae610b9b565b34801561040e57600080fd5b506007546001600160a01b0316610276565b34801561042c57600080fd5b50610249610baf565b34801561044157600080fd5b506102ae610450366004611895565b610bbe565b34801561046157600080fd5b506102ae6104703660046118d1565b610bc9565b34801561048157600080fd5b50610249610490366004611672565b610be1565b3480156104a157600080fd5b50610249610ccd565b3480156104b657600080fd5b5061020e6104c536600461194d565b6001600160a01b03918216600090815260056020908152604080832093909416825291909152205460ff1690565b3480156104ff57600080fd5b506102ae61050e36600461187a565b610d5b565b34801561051f57600080fd5b506101db61052e366004611672565b610daf565b600061053d610dc2565b506009819055805b919050565b60006001600160e01b031982167f49064906000000000000000000000000000000000000000000000000000000001480610588575061058882610e08565b92915050565b60606000805461059d90611980565b80601f01602080910402602001604051908101604052809291908181526020018280546105c990611980565b80156106165780601f106105eb57610100808354040283529160200191610616565b820191906000526020600020905b8154815290600101906020018083116105f957829003601f168201915b5050505050905090565b600061062b82610ea3565b506000828152600460205260409020546001600160a01b0316610588565b610654828233610edc565b5050565b6001600160a01b03821661068757604051633250574960e11b8152600060048201526024015b60405180910390fd5b6000610694838333610ee9565b9050836001600160a01b0316816001600160a01b0316146106fb576040517f64283d7b0000000000000000000000000000000000000000000000000000000081526001600160a01b038086166004830152602482018490528216604482015260640161067e565b50505050565b600061070b610dc2565b6007546001600160a01b031633146107655760405162461bcd60e51b815260206004820152600c60248201527f556e617574686f72697a65640000000000000000000000000000000000000000604482015260640161067e565b60006107796007546001600160a01b031690565b6001600160a01b03164760405160006040518083038185875af1925050503d80600081146107c3576040519150601f19603f3d011682016040523d82523d6000602084013e6107c8565b606091505b50509050806108195760405162461bcd60e51b815260206004820152601060248201527f5769746864726177206661696c65642e00000000000000000000000000000000604482015260640161067e565b600191505090565b61083c83838360405180602001604052806000815250610bc9565b505050565b3361084b826108d3565b6001600160a01b0316146108c75760405162461bcd60e51b815260206004820152602660248201527f4f6e6c7920746865206f776e6572206f6620746865204e46542063616e20627560448201527f726e2069742e0000000000000000000000000000000000000000000000000000606482015260840161067e565b6108d081610fef565b50565b600061058882610ea3565b60606108e8610dc2565b600b6108f48382611a00565b50600b805461090290611980565b80601f016020809104026020016040519081016040528092919081815260200182805461092e90611980565b801561097b5780601f106109505761010080835404028352916020019161097b565b820191906000526020600020905b81548152906001019060200180831161095e57829003601f168201915b50505050509050919050565b600060095434146109da5760405162461bcd60e51b815260206004820152601760248201527f4e6f7420656e6f756768205155414920746f206d696e74000000000000000000604482015260640161067e565b600c546109e683610b3a565b10610a335760405162461bcd60e51b815260206004820152601960248201527f596f752063616e206f6e6c79206d696e742032204e4654732e00000000000000604482015260640161067e565b600854600a548110610a875760405162461bcd60e51b815260206004820152600c60248201527f4e6f206d6f7265204e4654730000000000000000000000000000000000000000604482015260640161067e565b610a91838261102a565b600160086000828254610aa49190611ad6565b90915550909392505050565b6000610aba610dc2565b6008548211610b315760405162461bcd60e51b815260206004820152603660248201527f4e657720737570706c79206d7573742062652067726561746572207468616e2060448201527f63757272656e74206d696e74656420737570706c792e00000000000000000000606482015260840161067e565b50600a81905590565b60006001600160a01b038216610b7f576040517f89c62b640000000000000000000000000000000000000000000000000000000081526000600482015260240161067e565b506001600160a01b031660009081526003602052604090205490565b610ba3610dc2565b610bad60006110a8565b565b60606001805461059d90611980565b610654338383611107565b610bd4848484610658565b6106fb33858585856111bf565b6060610bec826108d3565b506000600b8054610bfc90611980565b80601f0160208091040260200160405190810160405280929190818152602001828054610c2890611980565b8015610c755780601f10610c4a57610100808354040283529160200191610c75565b820191906000526020600020905b815481529060010190602001808311610c5857829003601f168201915b505050505090508051600003610c9b575050604080516020810190915260008152919050565b80610ca5846112ea565b604051602001610cb6929190611ae9565b604051602081830303815290604052915050919050565b600b8054610cda90611980565b80601f0160208091040260200160405190810160405280929190818152602001828054610d0690611980565b8015610d535780601f10610d2857610100808354040283529160200191610d53565b820191906000526020600020905b815481529060010190602001808311610d3657829003601f168201915b505050505081565b610d63610dc2565b6001600160a01b038116610da6576040517f1e4fbdf70000000000000000000000000000000000000000000000000000000081526000600482015260240161067e565b6108d0816110a8565b6000610db9610dc2565b50600c81905590565b6007546001600160a01b03163314610bad576040517f118cdaa700000000000000000000000000000000000000000000000000000000815233600482015260240161067e565b60006001600160e01b031982167f80ac58cd000000000000000000000000000000000000000000000000000000001480610e6b57506001600160e01b031982167f5b5e139f00000000000000000000000000000000000000000000000000000000145b8061058857507f01ffc9a7000000000000000000000000000000000000000000000000000000006001600160e01b0319831614610588565b6000818152600260205260408120546001600160a01b03168061058857604051637e27328960e01b81526004810184905260240161067e565b61083c8383836001611427565b6000828152600260205260408120546001600160a01b0390811690831615610f1657610f16818486611572565b6001600160a01b03811615610f5457610f33600085600080611427565b6001600160a01b038116600090815260036020526040902080546000190190555b6001600160a01b03851615610f83576001600160a01b0385166000908152600360205260409020805460010190555b600084815260026020526040808220805473ffffffffffffffffffffffffffffffffffffffff19166001600160a01b0389811691821790925591518793918516917fddf252ad1be2c89b69c2b068fc378daa952ba7f163c4a11628f55a4df523b3ef91a4949350505050565b6000610ffe6000836000610ee9565b90506001600160a01b03811661065457604051637e27328960e01b81526004810183905260240161067e565b6001600160a01b03821661105457604051633250574960e11b81526000600482015260240161067e565b600061106283836000610ee9565b90506001600160a01b0381161561083c576040517f73c6ac6e0000000000000000000000000000000000000000000000000000000081526000600482015260240161067e565b600780546001600160a01b0383811673ffffffffffffffffffffffffffffffffffffffff19831681179093556040519116919082907f8be0079c531659141344cd1fd0a4f28419497f9722a3daafe3b4186f6b6457e090600090a35050565b6001600160a01b038216611152576040517f5b08ba180000000000000000000000000000000000000000000000000000000081526001600160a01b038316600482015260240161067e565b6001600160a01b03838116600081815260056020908152604080832094871680845294825291829020805460ff191686151590811790915591519182527f17307eab39ab6107e8899845ad3d59bd9653f200f220920489ca2b5937696c31910160405180910390a3505050565b6001600160a01b0383163b156112e357604051630a85bd0160e11b81526001600160a01b0384169063150b7a0290611201908890889087908790600401611b40565b6020604051808303816000875af192505050801561123c575060408051601f3d908101601f1916820190925261123991810190611b7c565b60015b6112a5573d80801561126a576040519150601f19603f3d011682016040523d82523d6000602084013e61126f565b606091505b50805160000361129d57604051633250574960e11b81526001600160a01b038516600482015260240161067e565b805160208201fd5b6001600160e01b03198116630a85bd0160e11b146112e157604051633250574960e11b81526001600160a01b038516600482015260240161067e565b505b5050505050565b60608160000361132d57505060408051808201909152600181527f3000000000000000000000000000000000000000000000000000000000000000602082015290565b8160005b8115611357578061134181611b99565b91506113509050600a83611bc8565b9150611331565b60008167ffffffffffffffff811115611372576113726117a5565b6040519080825280601f01601f19166020018201604052801561139c576020820181803683370190505b5090505b841561141f576113b1600183611bdc565b91506113be600a86611bef565b6113c9906030611ad6565b60f81b8183815181106113de576113de611c03565b60200101907effffffffffffffffffffffffffffffffffffffffffffffffffffffffffffff1916908160001a905350611418600a86611bc8565b94506113a0565b949350505050565b808061143b57506001600160a01b03821615155b1561153557600061144b84610ea3565b90506001600160a01b038316158015906114775750826001600160a01b0316816001600160a01b031614155b80156114a957506001600160a01b0380821660009081526005602090815260408083209387168352929052205460ff16155b156114eb576040517fa9fbf51f0000000000000000000000000000000000000000000000000000000081526001600160a01b038416600482015260240161067e565b81156115335783856001600160a01b0316826001600160a01b03167f8c5be1e5ebec7d5bd14f71427d1e84f3dd0314c0f7b2291e5b200ac8c7c3b92560405160405180910390a45b505b50506000908152600460205260409020805473ffffffffffffffffffffffffffffffffffffffff19166001600160a01b0392909216919091179055565b61157d8383836115ef565b61083c576001600160a01b0383166115ab57604051637e27328960e01b81526004810182905260240161067e565b6040517f177e802f0000000000000000000000000000000000000000000000000000000081526001600160a01b03831660048201526024810182905260440161067e565b60006001600160a01b0383161580159061141f5750826001600160a01b0316846001600160a01b0316148061164957506001600160a01b0380851660009081526005602090815260408083209387168352929052205460ff165b8061141f5750506000908152600460205260409020546001600160a01b03908116911614919050565b60006020828403121561168457600080fd5b5035919050565b6001600160e01b0319811681146108d057600080fd5b6000602082840312156116b357600080fd5b81356116be8161168b565b9392505050565b60005b838110156116e05781810151838201526020016116c8565b50506000910152565b600081518084526117018160208601602086016116c5565b601f01601f19169290920160200192915050565b6020815260006116be60208301846116e9565b80356001600160a01b038116811461054557600080fd5b6000806040838503121561175257600080fd5b61175b83611728565b946020939093013593505050565b60008060006060848603121561177e57600080fd5b61178784611728565b925061179560208501611728565b9150604084013590509250925092565b634e487b7160e01b600052604160045260246000fd5b600067ffffffffffffffff808411156117d6576117d66117a5565b604051601f8501601f19908116603f011681019082821181831017156117fe576117fe6117a5565b8160405280935085815286868601111561181757600080fd5b858560208301376000602087830101525050509392505050565b60006020828403121561184357600080fd5b813567ffffffffffffffff81111561185a57600080fd5b8201601f8101841361186b57600080fd5b61141f848235602084016117bb565b60006020828403121561188c57600080fd5b6116be82611728565b600080604083850312156118a857600080fd5b6118b183611728565b9150602083013580151581146118c657600080fd5b809150509250929050565b600080600080608085870312156118e757600080fd5b6118f085611728565b93506118fe60208601611728565b925060408501359150606085013567ffffffffffffffff81111561192157600080fd5b8501601f8101871361193257600080fd5b611941878235602084016117bb565b91505092959194509250565b6000806040838503121561196057600080fd5b61196983611728565b915061197760208401611728565b90509250929050565b600181811c9082168061199457607f821691505b6020821081036119b457634e487b7160e01b600052602260045260246000fd5b50919050565b601f82111561083c57600081815260208120601f850160051c810160208610156119e15750805b601f850160051c820191505b818110156112e1578281556001016119ed565b815167ffffffffffffffff811115611a1a57611a1a6117a5565b611a2e81611a288454611980565b846119ba565b602080601f831160018114611a635760008415611a4b5750858301515b600019600386901b1c1916600185901b1785556112e1565b600085815260208120601f198616915b82811015611a9257888601518255948401946001909101908401611a73565b5085821015611ab05787850151600019600388901b60f8161c191681555b5050505050600190811b01905550565b634e487b7160e01b600052601160045260246000fd5b8082018082111561058857610588611ac0565b60008351611afb8184602088016116c5565b835190830190611b0f8183602088016116c5565b7f2e6a736f6e0000000000000000000000000000000000000000000000000000009101908152600501949350505050565b60006001600160a01b03808716835280861660208401525083604083015260806060830152611b7260808301846116e9565b9695505050505050565b600060208284031215611b8e57600080fd5b81516116be8161168b565b600060018201611bab57611bab611ac0565b5060010190565b634e487b7160e01b600052601260045260246000fd5b600082611bd757611bd7611bb2565b500490565b8181038181111561058857610588611ac0565b600082611bfe57611bfe611bb2565b500690565b634e487b7160e01b600052603260045260246000fdfea2646970667358221220bf78f00ba7817188a4361494237eb0c8be52f6154ba8e8fc04640b2929ed40b664736f6c63430008140033697066733a2f2f516d5a646567665751317052344d457951666637786e56314a3437614c55444168705235476a737872645774466e2f",
  "linkReferences": {},
  "deployedLinkReferences": {}
}