{
  "_format": "hh-sol-artifact-1",
  "contractName": "TheMojis",
  "sourceName": "contracts/TheMojis.sol",
  "abi": [
    {
      "inputs": [
        {
          "internalType": "address",
          "name": "initialOwner",
          "type": "address"
        }
      ],
      "stateMutability": "nonpayable",
      "type": "constructor"
    },
    {
      "inputs": [
        {
          "internalType": "address",
          "name": "sender",
          "type": "address"
        },
        {
          "internalType": "uint256",
          "name": "tokenId",
          "type": "uint256"
        },
        {
          "internalType": "address",
          "name": "owner",
          "type": "address"
        }
      ],
      "name": "ERC721IncorrectOwner",
      "type": "error"
    },
    {
      "inputs": [
        {
          "internalType": "address",
          "name": "operator",
          "type": "address"
        },
        {
          "internalType": "uint256",
          "name": "tokenId",
          "type": "uint256"
        }
      ],
      "name": "ERC721InsufficientApproval",
      "type": "error"
    },
    {
      "inputs": [
        {
          "internalType": "address",
          "name": "approver",
          "type": "address"
        }
      ],
      "name": "ERC721InvalidApprover",
      "type": "error"
    },
    {
      "inputs": [
        {
          "internalType": "address",
          "name": "operator",
          "type": "address"
        }
      ],
      "name": "ERC721InvalidOperator",
      "type": "error"
    },
    {
      "inputs": [
        {
          "internalType": "address",
          "name": "owner",
          "type": "address"
        }
      ],
      "name": "ERC721InvalidOwner",
      "type": "error"
    },
    {
      "inputs": [
        {
          "internalType": "address",
          "name": "receiver",
          "type": "address"
        }
      ],
      "name": "ERC721InvalidReceiver",
      "type": "error"
    },
    {
      "inputs": [
        {
          "internalType": "address",
          "name": "sender",
          "type": "address"
        }
      ],
      "name": "ERC721InvalidSender",
      "type": "error"
    },
    {
      "inputs": [
        {
          "internalType": "uint256",
          "name": "tokenId",
          "type": "uint256"
        }
      ],
      "name": "ERC721NonexistentToken",
      "type": "error"
    },
    {
      "inputs": [
        {
          "internalType": "address",
          "name": "owner",
          "type": "address"
        }
      ],
      "name": "OwnableInvalidOwner",
      "type": "error"
    },
    {
      "inputs": [
        {
          "internalType": "address",
          "name": "account",
          "type": "address"
        }
      ],
      "name": "OwnableUnauthorizedAccount",
      "type": "error"
    },
    {
      "anonymous": false,
      "inputs": [
        {
          "indexed": true,
          "internalType": "address",
          "name": "owner",
          "type": "address"
        },
        {
          "indexed": true,
          "internalType": "address",
          "name": "approved",
          "type": "address"
        },
        {
          "indexed": true,
          "internalType": "uint256",
          "name": "tokenId",
          "type": "uint256"
        }
      ],
      "name": "Approval",
      "type": "event"
    },
    {
      "anonymous": false,
      "inputs": [
        {
          "indexed": true,
          "internalType": "address",
          "name": "owner",
          "type": "address"
        },
        {
          "indexed": true,
          "internalType": "address",
          "name": "operator",
          "type": "address"
        },
        {
          "indexed": false,
          "internalType": "bool",
          "name": "approved",
          "type": "bool"
        }
      ],
      "name": "ApprovalForAll",
      "type": "event"
    },
    {
      "anonymous": false,
      "inputs": [
        {
          "indexed": false,
          "internalType": "uint256",
          "name": "_fromTokenId",
          "type": "uint256"
        },
        {
          "indexed": false,
          "internalType": "uint256",
          "name": "_toTokenId",
          "type": "uint256"
        }
      ],
      "name": "BatchMetadataUpdate",
      "type": "event"
    },
    {
      "anonymous": false,
      "inputs": [
        {
          "indexed": false,
          "internalType": "uint256",
          "name": "_tokenId",
          "type": "uint256"
        }
      ],
      "name": "MetadataUpdate",
      "type": "event"
    },
    {
      "anonymous": false,
      "inputs": [
        {
          "indexed": true,
          "internalType": "address",
          "name": "previousOwner",
          "type": "address"
        },
        {
          "indexed": true,
          "internalType": "address",
          "name": "newOwner",
          "type": "address"
        }
      ],
      "name": "OwnershipTransferred",
      "type": "event"
    },
    {
      "anonymous": false,
      "inputs": [
        {
          "indexed": false,
          "internalType": "address",
          "name": "account",
          "type": "address"
        }
      ],
      "name": "Paused",
      "type": "event"
    },
    {
      "anonymous": false,
      "inputs": [
        {
          "indexed": true,
          "internalType": "address",
          "name": "from",
          "type": "address"
        },
        {
          "indexed": true,
          "internalType": "address",
          "name": "to",
          "type": "address"
        },
        {
          "indexed": true,
          "internalType": "uint256",
          "name": "tokenId",
          "type": "uint256"
        }
      ],
      "name": "Transfer",
      "type": "event"
    },
    {
      "anonymous": false,
      "inputs": [
        {
          "indexed": false,
          "internalType": "address",
          "name": "account",
          "type": "address"
        }
      ],
      "name": "Unpaused",
      "type": "event"
    },
    {
      "inputs": [
        {
          "internalType": "address",
          "name": "_user",
          "type": "address"
        }
      ],
      "name": "addToWhitelist",
      "outputs": [],
      "stateMutability": "nonpayable",
      "type": "function"
    },
    {
      "inputs": [
        {
          "internalType": "address",
          "name": "to",
          "type": "address"
        },
        {
          "internalType": "uint256",
          "name": "tokenId",
          "type": "uint256"
        }
      ],
      "name": "approve",
      "outputs": [],
      "stateMutability": "nonpayable",
      "type": "function"
    },
    {
      "inputs": [
        {
          "internalType": "address",
          "name": "owner",
          "type": "address"
        }
      ],
      "name": "balanceOf",
      "outputs": [
        {
          "internalType": "uint256",
          "name": "",
          "type": "uint256"
        }
      ],
      "stateMutability": "view",
      "type": "function"
    },
    {
      "inputs": [],
      "name": "baseTokenURI",
      "outputs": [
        {
          "internalType": "string",
          "name": "",
          "type": "string"
        }
      ],
      "stateMutability": "view",
      "type": "function"
    },
    {
      "inputs": [
        {
          "internalType": "uint256",
          "name": "tokenId",
          "type": "uint256"
        }
      ],
      "name": "burn",
      "outputs": [],
      "stateMutability": "nonpayable",
      "type": "function"
    },
    {
      "inputs": [
        {
          "internalType": "uint256",
          "name": "tokenId",
          "type": "uint256"
        }
      ],
      "name": "getApproved",
      "outputs": [
        {
          "internalType": "address",
          "name": "",
          "type": "address"
        }
      ],
      "stateMutability": "view",
      "type": "function"
    },
    {
      "inputs": [
        {
          "internalType": "address",
          "name": "owner",
          "type": "address"
        },
        {
          "internalType": "address",
          "name": "operator",
          "type": "address"
        }
      ],
      "name": "isApprovedForAll",
      "outputs": [
        {
          "internalType": "bool",
          "name": "",
          "type": "bool"
        }
      ],
      "stateMutability": "view",
      "type": "function"
    },
    {
      "inputs": [],
      "name": "maxMintPerAddress",
      "outputs": [
        {
          "internalType": "uint256",
          "name": "",
          "type": "uint256"
        }
      ],
      "stateMutability": "view",
      "type": "function"
    },
    {
      "inputs": [
        {
          "internalType": "address",
          "name": "_recipient",
          "type": "address"
        }
      ],
      "name": "mint",
      "outputs": [
        {
          "internalType": "uint256",
          "name": "",
          "type": "uint256"
        }
      ],
      "stateMutability": "nonpayable",
      "type": "function"
    },
    {
      "inputs": [],
      "name": "name",
      "outputs": [
        {
          "internalType": "string",
          "name": "",
          "type": "string"
        }
      ],
      "stateMutability": "view",
      "type": "function"
    },
    {
      "inputs": [],
      "name": "owner",
      "outputs": [
        {
          "internalType": "address",
          "name": "",
          "type": "address"
        }
      ],
      "stateMutability": "view",
      "type": "function"
    },
    {
      "inputs": [
        {
          "internalType": "uint256",
          "name": "tokenId",
          "type": "uint256"
        }
      ],
      "name": "ownerOf",
      "outputs": [
        {
          "internalType": "address",
          "name": "",
          "type": "address"
        }
      ],
      "stateMutability": "view",
      "type": "function"
    },
    {
      "inputs": [],
      "name": "pause",
      "outputs": [],
      "stateMutability": "nonpayable",
      "type": "function"
    },
    {
      "inputs": [],
      "name": "paused",
      "outputs": [
        {
          "internalType": "bool",
          "name": "",
          "type": "bool"
        }
      ],
      "stateMutability": "view",
      "type": "function"
    },
    {
      "inputs": [
        {
          "internalType": "address",
          "name": "_user",
          "type": "address"
        }
      ],
      "name": "removeFromWhitelist",
      "outputs": [],
      "stateMutability": "nonpayable",
      "type": "function"
    },
    {
      "inputs": [],
      "name": "renounceOwnership",
      "outputs": [],
      "stateMutability": "nonpayable",
      "type": "function"
    },
    {
      "inputs": [
        {
          "internalType": "address",
          "name": "from",
          "type": "address"
        },
        {
          "internalType": "address",
          "name": "to",
          "type": "address"
        },
        {
          "internalType": "uint256",
          "name": "tokenId",
          "type": "uint256"
        }
      ],
      "name": "safeTransferFrom",
      "outputs": [],
      "stateMutability": "nonpayable",
      "type": "function"
    },
    {
      "inputs": [
        {
          "internalType": "address",
          "name": "from",
          "type": "address"
        },
        {
          "internalType": "address",
          "name": "to",
          "type": "address"
        },
        {
          "internalType": "uint256",
          "name": "tokenId",
          "type": "uint256"
        },
        {
          "internalType": "bytes",
          "name": "data",
          "type": "bytes"
        }
      ],
      "name": "safeTransferFrom",
      "outputs": [],
      "stateMutability": "nonpayable",
      "type": "function"
    },
    {
      "inputs": [
        {
          "internalType": "address",
          "name": "operator",
          "type": "address"
        },
        {
          "internalType": "bool",
          "name": "approved",
          "type": "bool"
        }
      ],
      "name": "setApprovalForAll",
      "outputs": [],
      "stateMutability": "nonpayable",
      "type": "function"
    },
    {
      "inputs": [],
      "name": "supply",
      "outputs": [
        {
          "internalType": "uint256",
          "name": "",
          "type": "uint256"
        }
      ],
      "stateMutability": "view",
      "type": "function"
    },
    {
      "inputs": [
        {
          "internalType": "bytes4",
          "name": "interfaceId",
          "type": "bytes4"
        }
      ],
      "name": "supportsInterface",
      "outputs": [
        {
          "internalType": "bool",
          "name": "",
          "type": "bool"
        }
      ],
      "stateMutability": "view",
      "type": "function"
    },
    {
      "inputs": [],
      "name": "symbol",
      "outputs": [
        {
          "internalType": "string",
          "name": "",
          "type": "string"
        }
      ],
      "stateMutability": "view",
      "type": "function"
    },
    {
      "inputs": [],
      "name": "tokenIds",
      "outputs": [
        {
          "internalType": "uint256",
          "name": "",
          "type": "uint256"
        }
      ],
      "stateMutability": "view",
      "type": "function"
    },
    {
      "inputs": [
        {
          "internalType": "uint256",
          "name": "tokenId",
          "type": "uint256"
        }
      ],
      "name": "tokenURI",
      "outputs": [
        {
          "internalType": "string",
          "name": "",
          "type": "string"
        }
      ],
      "stateMutability": "view",
      "type": "function"
    },
    {
      "inputs": [
        {
          "internalType": "address",
          "name": "from",
          "type": "address"
        },
        {
          "internalType": "address",
          "name": "to",
          "type": "address"
        },
        {
          "internalType": "uint256",
          "name": "tokenId",
          "type": "uint256"
        }
      ],
      "name": "transferFrom",
      "outputs": [],
      "stateMutability": "nonpayable",
      "type": "function"
    },
    {
      "inputs": [
        {
          "internalType": "address",
          "name": "newOwner",
          "type": "address"
        }
      ],
      "name": "transferOwnership",
      "outputs": [],
      "stateMutability": "nonpayable",
      "type": "function"
    },
    {
      "inputs": [],
      "name": "unpause",
      "outputs": [],
      "stateMutability": "nonpayable",
      "type": "function"
    },
    {
      "inputs": [
        {
          "internalType": "string",
          "name": "_baseTokenURI",
          "type": "string"
        }
      ],
      "name": "updateBaseTokenURI",
      "outputs": [
        {
          "internalType": "string",
          "name": "",
          "type": "string"
        }
      ],
      "stateMutability": "nonpayable",
      "type": "function"
    },
    {
      "inputs": [
        {
          "internalType": "uint256",
          "name": "_maxMintPerAddress",
          "type": "uint256"
        }
      ],
      "name": "updateMaxMintPerAddress",
      "outputs": [
        {
          "internalType": "uint256",
          "name": "",
          "type": "uint256"
        }
      ],
      "stateMutability": "nonpayable",
      "type": "function"
    },
    {
      "inputs": [
        {
          "internalType": "uint256",
          "name": "_supply",
          "type": "uint256"
        }
      ],
      "name": "updateSupply",
      "outputs": [
        {
          "internalType": "uint256",
          "name": "",
          "type": "uint256"
        }
      ],
      "stateMutability": "nonpayable",
      "type": "function"
    },
    {
      "inputs": [
        {
          "internalType": "address",
          "name": "",
          "type": "address"
        }
      ],
      "name": "whitelist",
      "outputs": [
        {
          "internalType": "bool",
          "name": "",
          "type": "bool"
        }
      ],
      "stateMutability": "view",
      "type": "function"
    }
  ],
  "bytecode": "0x60006008556110c360095560e0604052603660808181529062001efa60a039600a906200002d90826200020b565b506005600b55600c805460ff191660011790553480156200004d57600080fd5b5060405162001f3038038062001f308339810160408190526200007091620002d7565b8060405180604001604052806009815260200168546865204d6f6a697360b81b815250604051806040016040528060038152602001622a26a560e91b8152508160009081620000c091906200020b565b506001620000cf82826200020b565b5050506001600160a01b0381166200010157604051631e4fbdf760e01b81526000600482015260240160405180910390fd5b6200010c8162000114565b505062000309565b600780546001600160a01b038381166001600160a01b0319831681179093556040519116919082907f8be0079c531659141344cd1fd0a4f28419497f9722a3daafe3b4186f6b6457e090600090a35050565b634e487b7160e01b600052604160045260246000fd5b600181811c908216806200019157607f821691505b602082108103620001b257634e487b7160e01b600052602260045260246000fd5b50919050565b601f8211156200020657600081815260208120601f850160051c81016020861015620001e15750805b601f850160051c820191505b818110156200020257828155600101620001ed565b5050505b505050565b81516001600160401b0381111562000227576200022762000166565b6200023f816200023884546200017c565b84620001b8565b602080601f8311600181146200027757600084156200025e5750858301515b600019600386901b1c1916600185901b17855562000202565b600085815260208120601f198616915b82811015620002a85788860151825594840194600190910190840162000287565b5085821015620002c75787850151600019600388901b60f8161c191681555b5050505050600190811b01905550565b600060208284031215620002ea57600080fd5b81516001600160a01b03811681146200030257600080fd5b9392505050565b611be180620003196000396000f3fe608060405234801561001057600080fd5b50600436106101e55760003560e01c806370a082311161010f578063a22cb465116100a2578063e43252d711610071578063e43252d7146103dd578063e985e9c5146103f0578063f2fde38b1461042c578063f889f1fa1461043f57600080fd5b8063a22cb4651461039c578063b88d4fde146103af578063c87b56dd146103c2578063d547cfb7146103d557600080fd5b80638ab1d681116100de5780638ab1d6811461034d5780638da5cb5b1461036057806395d89b41146103715780639b19251a1461037957600080fd5b806370a0823114610321578063714cff5614610334578063715018a61461033d5780638456cb591461034557600080fd5b806342842e0e116101875780636352211e116101565780636352211e146102d5578063655391c9146102e85780636a627842146102fb5780636bd080491461030e57600080fd5b806342842e0e1461029957806342966c68146102ac578063572849c4146102bf5780635c975abb146102c857600080fd5b8063081812fc116101c3578063081812fc1461023e578063095ea7b31461026957806323b872dd1461027e5780633f4ba83a1461029157600080fd5b806301ffc9a7146101ea578063047fc9aa1461021257806306fdde0314610229575b600080fd5b6101fd6101f836600461161a565b610452565b60405190151581526020015b60405180910390f35b61021b60095481565b604051908152602001610209565b610231610496565b604051610209919061168e565b61025161024c3660046116a1565b610528565b6040516001600160a01b039091168152602001610209565b61027c6102773660046116d1565b610551565b005b61027c61028c3660046116fb565b610560565b61027c610609565b61027c6102a73660046116fb565b6106a3565b61027c6102ba3660046116a1565b6106c3565b61021b600b5481565b600c546101fd9060ff1681565b6102516102e33660046116a1565b610755565b6102316102f63660046117c3565b610760565b61021b61030936600461180c565b61080a565b61021b61031c3660046116a1565b610955565b61021b61032f36600461180c565b6109df565b61021b60085481565b61027c610a40565b61027c610a54565b61027c61035b36600461180c565b610aec565b6007546001600160a01b0316610251565b610231610b15565b6101fd61038736600461180c565b600d6020526000908152604090205460ff1681565b61027c6103aa366004611827565b610b24565b61027c6103bd366004611863565b610b2f565b6102316103d03660046116a1565b610b47565b610231610c33565b61027c6103eb36600461180c565b610cc1565b6101fd6103fe3660046118df565b6001600160a01b03918216600090815260056020908152604080832093909416825291909152205460ff1690565b61027c61043a36600461180c565b610ced565b61021b61044d3660046116a1565b610d41565b60006001600160e01b031982167f49064906000000000000000000000000000000000000000000000000000000001480610490575061049082610d54565b92915050565b6060600080546104a590611912565b80601f01602080910402602001604051908101604052809291908181526020018280546104d190611912565b801561051e5780601f106104f35761010080835404028352916020019161051e565b820191906000526020600020905b81548152906001019060200180831161050157829003601f168201915b5050505050905090565b600061053382610def565b506000828152600460205260409020546001600160a01b0316610490565b61055c828233610e28565b5050565b6001600160a01b03821661058f57604051633250574960e11b8152600060048201526024015b60405180910390fd5b600061059c838333610e35565b9050836001600160a01b0316816001600160a01b031614610603576040517f64283d7b0000000000000000000000000000000000000000000000000000000081526001600160a01b0380861660048301526024820184905282166044820152606401610586565b50505050565b610611610f3b565b600c5460ff166106635760405162461bcd60e51b815260206004820152601560248201527f4d696e74696e67206973206e6f742070617573656400000000000000000000006044820152606401610586565b600c805460ff191690556040513381527f5db9ee0a495bf2e6ff9c91a7834c1ba4fdd244a5e8aa4e537bd38aeae4b073aa906020015b60405180910390a1565b6106be83838360405180602001604052806000815250610b2f565b505050565b336106cd82610755565b6001600160a01b0316146107495760405162461bcd60e51b815260206004820152602660248201527f4f6e6c7920746865206f776e6572206f6620746865204e46542063616e20627560448201527f726e2069742e00000000000000000000000000000000000000000000000000006064820152608401610586565b61075281610f81565b50565b600061049082610def565b606061076a610f3b565b600a6107768382611992565b50600a805461078490611912565b80601f01602080910402602001604051908101604052809291908181526020018280546107b090611912565b80156107fd5780601f106107d2576101008083540402835291602001916107fd565b820191906000526020600020905b8154815290600101906020018083116107e057829003601f168201915b505050505090505b919050565b6000600b54610818836109df565b106108655760405162461bcd60e51b815260206004820152601d60248201527f4d6178206d696e7420706572206164647265737320726561636865642e0000006044820152606401610586565b600c5460ff16156108d8576001600160a01b0382166000908152600d602052604090205460ff166108d85760405162461bcd60e51b815260206004820152601860248201527f596f7520617265206e6f742077686974656c69737465642e00000000000000006044820152606401610586565b600854600954811061092c5760405162461bcd60e51b815260206004820152600c60248201527f4e6f206d6f7265204e46547300000000000000000000000000000000000000006044820152606401610586565b6109368382610fbc565b6001600860008282546109499190611a68565b90915550909392505050565b600061095f610f3b565b60085482116109d65760405162461bcd60e51b815260206004820152603660248201527f4e657720737570706c79206d7573742062652067726561746572207468616e2060448201527f63757272656e74206d696e74656420737570706c792e000000000000000000006064820152608401610586565b50600981905590565b60006001600160a01b038216610a24576040517f89c62b6400000000000000000000000000000000000000000000000000000000815260006004820152602401610586565b506001600160a01b031660009081526003602052604090205490565b610a48610f3b565b610a52600061103a565b565b610a5c610f3b565b600c5460ff1615610aaf5760405162461bcd60e51b815260206004820152601960248201527f4d696e74696e6720697320616c726561647920706175736564000000000000006044820152606401610586565b600c805460ff191660011790556040513381527f62e78cea01bee320cd4e420270b5ea74000d11b0c9f74754ebdbfc544b05a25890602001610699565b610af4610f3b565b6001600160a01b03166000908152600d60205260409020805460ff19169055565b6060600180546104a590611912565b61055c338383611099565b610b3a848484610560565b6106033385858585611151565b6060610b5282610755565b506000600a8054610b6290611912565b80601f0160208091040260200160405190810160405280929190818152602001828054610b8e90611912565b8015610bdb5780601f10610bb057610100808354040283529160200191610bdb565b820191906000526020600020905b815481529060010190602001808311610bbe57829003601f168201915b505050505090508051600003610c01575050604080516020810190915260008152919050565b80610c0b8461127c565b604051602001610c1c929190611a7b565b604051602081830303815290604052915050919050565b600a8054610c4090611912565b80601f0160208091040260200160405190810160405280929190818152602001828054610c6c90611912565b8015610cb95780601f10610c8e57610100808354040283529160200191610cb9565b820191906000526020600020905b815481529060010190602001808311610c9c57829003601f168201915b505050505081565b610cc9610f3b565b6001600160a01b03166000908152600d60205260409020805460ff19166001179055565b610cf5610f3b565b6001600160a01b038116610d38576040517f1e4fbdf700000000000000000000000000000000000000000000000000000000815260006004820152602401610586565b6107528161103a565b6000610d4b610f3b565b50600b81905590565b60006001600160e01b031982167f80ac58cd000000000000000000000000000000000000000000000000000000001480610db757506001600160e01b031982167f5b5e139f00000000000000000000000000000000000000000000000000000000145b8061049057507f01ffc9a7000000000000000000000000000000000000000000000000000000006001600160e01b0319831614610490565b6000818152600260205260408120546001600160a01b03168061049057604051637e27328960e01b815260048101849052602401610586565b6106be83838360016113b9565b6000828152600260205260408120546001600160a01b0390811690831615610e6257610e62818486611504565b6001600160a01b03811615610ea057610e7f6000856000806113b9565b6001600160a01b038116600090815260036020526040902080546000190190555b6001600160a01b03851615610ecf576001600160a01b0385166000908152600360205260409020805460010190555b600084815260026020526040808220805473ffffffffffffffffffffffffffffffffffffffff19166001600160a01b0389811691821790925591518793918516917fddf252ad1be2c89b69c2b068fc378daa952ba7f163c4a11628f55a4df523b3ef91a4949350505050565b6007546001600160a01b03163314610a52576040517f118cdaa7000000000000000000000000000000000000000000000000000000008152336004820152602401610586565b6000610f906000836000610e35565b90506001600160a01b03811661055c57604051637e27328960e01b815260048101839052602401610586565b6001600160a01b038216610fe657604051633250574960e11b815260006004820152602401610586565b6000610ff483836000610e35565b90506001600160a01b038116156106be576040517f73c6ac6e00000000000000000000000000000000000000000000000000000000815260006004820152602401610586565b600780546001600160a01b0383811673ffffffffffffffffffffffffffffffffffffffff19831681179093556040519116919082907f8be0079c531659141344cd1fd0a4f28419497f9722a3daafe3b4186f6b6457e090600090a35050565b6001600160a01b0382166110e4576040517f5b08ba180000000000000000000000000000000000000000000000000000000081526001600160a01b0383166004820152602401610586565b6001600160a01b03838116600081815260056020908152604080832094871680845294825291829020805460ff191686151590811790915591519182527f17307eab39ab6107e8899845ad3d59bd9653f200f220920489ca2b5937696c31910160405180910390a3505050565b6001600160a01b0383163b1561127557604051630a85bd0160e11b81526001600160a01b0384169063150b7a0290611193908890889087908790600401611ad2565b6020604051808303816000875af19250505080156111ce575060408051601f3d908101601f191682019092526111cb91810190611b0e565b60015b611237573d8080156111fc576040519150601f19603f3d011682016040523d82523d6000602084013e611201565b606091505b50805160000361122f57604051633250574960e11b81526001600160a01b0385166004820152602401610586565b805160208201fd5b6001600160e01b03198116630a85bd0160e11b1461127357604051633250574960e11b81526001600160a01b0385166004820152602401610586565b505b5050505050565b6060816000036112bf57505060408051808201909152600181527f3000000000000000000000000000000000000000000000000000000000000000602082015290565b8160005b81156112e957806112d381611b2b565b91506112e29050600a83611b5a565b91506112c3565b60008167ffffffffffffffff81111561130457611304611737565b6040519080825280601f01601f19166020018201604052801561132e576020820181803683370190505b5090505b84156113b157611343600183611b6e565b9150611350600a86611b81565b61135b906030611a68565b60f81b81838151811061137057611370611b95565b60200101907effffffffffffffffffffffffffffffffffffffffffffffffffffffffffffff1916908160001a9053506113aa600a86611b5a565b9450611332565b949350505050565b80806113cd57506001600160a01b03821615155b156114c75760006113dd84610def565b90506001600160a01b038316158015906114095750826001600160a01b0316816001600160a01b031614155b801561143b57506001600160a01b0380821660009081526005602090815260408083209387168352929052205460ff16155b1561147d576040517fa9fbf51f0000000000000000000000000000000000000000000000000000000081526001600160a01b0384166004820152602401610586565b81156114c55783856001600160a01b0316826001600160a01b03167f8c5be1e5ebec7d5bd14f71427d1e84f3dd0314c0f7b2291e5b200ac8c7c3b92560405160405180910390a45b505b50506000908152600460205260409020805473ffffffffffffffffffffffffffffffffffffffff19166001600160a01b0392909216919091179055565b61150f838383611581565b6106be576001600160a01b03831661153d57604051637e27328960e01b815260048101829052602401610586565b6040517f177e802f0000000000000000000000000000000000000000000000000000000081526001600160a01b038316600482015260248101829052604401610586565b60006001600160a01b038316158015906113b15750826001600160a01b0316846001600160a01b031614806115db57506001600160a01b0380851660009081526005602090815260408083209387168352929052205460ff165b806113b15750506000908152600460205260409020546001600160a01b03908116911614919050565b6001600160e01b03198116811461075257600080fd5b60006020828403121561162c57600080fd5b813561163781611604565b9392505050565b60005b83811015611659578181015183820152602001611641565b50506000910152565b6000815180845261167a81602086016020860161163e565b601f01601f19169290920160200192915050565b6020815260006116376020830184611662565b6000602082840312156116b357600080fd5b5035919050565b80356001600160a01b038116811461080557600080fd5b600080604083850312156116e457600080fd5b6116ed836116ba565b946020939093013593505050565b60008060006060848603121561171057600080fd5b611719846116ba565b9250611727602085016116ba565b9150604084013590509250925092565b634e487b7160e01b600052604160045260246000fd5b600067ffffffffffffffff8084111561176857611768611737565b604051601f8501601f19908116603f0116810190828211818310171561179057611790611737565b816040528093508581528686860111156117a957600080fd5b858560208301376000602087830101525050509392505050565b6000602082840312156117d557600080fd5b813567ffffffffffffffff8111156117ec57600080fd5b8201601f810184136117fd57600080fd5b6113b18482356020840161174d565b60006020828403121561181e57600080fd5b611637826116ba565b6000806040838503121561183a57600080fd5b611843836116ba565b91506020830135801515811461185857600080fd5b809150509250929050565b6000806000806080858703121561187957600080fd5b611882856116ba565b9350611890602086016116ba565b925060408501359150606085013567ffffffffffffffff8111156118b357600080fd5b8501601f810187136118c457600080fd5b6118d38782356020840161174d565b91505092959194509250565b600080604083850312156118f257600080fd5b6118fb836116ba565b9150611909602084016116ba565b90509250929050565b600181811c9082168061192657607f821691505b60208210810361194657634e487b7160e01b600052602260045260246000fd5b50919050565b601f8211156106be57600081815260208120601f850160051c810160208610156119735750805b601f850160051c820191505b818110156112735782815560010161197f565b815167ffffffffffffffff8111156119ac576119ac611737565b6119c0816119ba8454611912565b8461194c565b602080601f8311600181146119f557600084156119dd5750858301515b600019600386901b1c1916600185901b178555611273565b600085815260208120601f198616915b82811015611a2457888601518255948401946001909101908401611a05565b5085821015611a425787850151600019600388901b60f8161c191681555b5050505050600190811b01905550565b634e487b7160e01b600052601160045260246000fd5b8082018082111561049057610490611a52565b60008351611a8d81846020880161163e565b835190830190611aa181836020880161163e565b7f2e6a736f6e0000000000000000000000000000000000000000000000000000009101908152600501949350505050565b60006001600160a01b03808716835280861660208401525083604083015260806060830152611b046080830184611662565b9695505050505050565b600060208284031215611b2057600080fd5b815161163781611604565b600060018201611b3d57611b3d611a52565b5060010190565b634e487b7160e01b600052601260045260246000fd5b600082611b6957611b69611b44565b500490565b8181038181111561049057610490611a52565b600082611b9057611b90611b44565b500690565b634e487b7160e01b600052603260045260246000fdfea26469706673582212206affd9850ac718131f2350296a79edf3cc06c8f256416e8a31edc6fe7abf015b64736f6c63430008140033697066733a2f2f516d5a646567665751317052344d457951666637786e56314a3437614c55444168705235476a737872645774466e2f",
  "linkReferences": {},
  "deployedLinkReferences": {}
}